:10000000601400205D320000B5320000B9320000FB
:1000100000000000000000000000000000000000E0
:10002000000000000000000000000000BD320000E1
:100030000000000000000000C13200002932000072
:10004000C5320000C9320000CD32000000000000BF
:10005000D1320000D5320000D9320000DD3200007C
:10006000E1320000E532000031320000E9320000E8
:10007000ED320000F1320000F5320000F9320000EC
:10008000FD32000001330000053300000933000099
:100090000D33000010B4036801248C40A343140006
:1000A000E407E40F8C401C43046010BC70470268F6
:1000B000CA401000C007C00F704700B5002804D028
:1000C0008949884201D2012100E00021C9B21F23E1
:1000D00000F02EFC181A00BD84480068000EC0B263
:1000E000704780B582480068E021C90001400029BE
:1000F00022D08020400081421CD08020800081429C
:1001000010D0C0208000814204D0E020C000814295
:1001100014D015E0FFF7E0FF132801DB754800E07D
:1001200075480EE0FFF7D8FF132801DB734800E0A5
:10013000734806E0734804E0734802E0734800E047
:10014000002002BD80B5724800F030FAC0B2072826
:1001500004D0092805D100F010FC03E0FFF7C1FF2F
:1001600000E0002002BD00B56C4909684907490F4D
:10017000684A904201D2002103E0674A904200D2CF
:1001800001216648006807229043014363480160EB
:1001900000BD10B562480068002801D0012400E0CD
:1001A000002460485E49086000F0E5FB0021FFF78D
:1001B000DAFFE4B2002C02D000205949086010BDDB
:1001C00010B5574A1268002A01D0012400E000242B
:1001D000544A534B1A60FFF7C6FFE4B2002C02D01A
:1001E00000204F49086010BD10B504000020200019
:1001F0004D49884205D04D49884202D04C49884239
:1002000000D1FFE7200000F0D1F92100464A9142D9
:1002100006D0464A914208D0454A91420BD010E0A0
:10022000444800688007800F0BE04248006880085F
:100230008007800F05E03F48006800098007800FB5
:10024000FFE700280FD0022806D002D3032806D0EB
:100250001EE000F0E2FB1CE000F0E5FB19E000F01E
:100260007FFB400815E000202F498C4202D02F4927
:100270008C420CD12F4909682B4A944201D110229B
:1002800000E01422D140002901D000F0C9FB00E0B9
:10029000002010BD00B528490968C90704D42749C2
:1002A000096801400029FAD100BD80B5244800F05A
:1002B0007DF9C0B2022806D0032807D009280BD048
:1002C0000A2806D00BE000F0AEFB09E000F0A5FB29
:1002D00006E01C48006803E000F04FFB00E000204F
:1002E00002BD70477047000001800000FC81E00FF4
:1002F00014800C40804F120040420F0040B5640053
:10030000C0CF6A00C0D8A700809FD500406F4001D1
:1003100006000E000124F4000148E80104000C402E
:100320003C000C40711B000002001C0003001E007A
:100330000400200028800C4054800C4050800C4069
:10034000073324000000002010B50C00011109073C
:10035000090F012908D004291FD0072931D0082905
:100360004AD0092961D078E0002C03D0092C01D2B1
:10037000012000E00020C0B2FFF70BFF52480068E8
:1003800087490140641EA00308434F49086000F0FC
:10039000E7FA0021FFF714FF5FE0002C04D081484A
:1003A000844201D2012000E00020C0B22000FFF70B
:1003B00084FE464909680F22914308434349086077
:1003C0004BE0002C04D07748844201D2012000E0A9
:1003D0000020C0B2FFF7DDFE2000FFF76EFE3C49B3
:1003E00009680F22914308433949086000F0B8FAC0
:1003F0000021FFF7E5FE30E03649884214D16A4813
:10040000844201D2012000E00020C0B20420FFF7A6
:1004100041FF2000FFF751FE2F4909680F22914349
:1004200008432D490860FFE717E02C49884213D1A3
:10043000092C01D2012000E00020C0B24020FFF7CB
:1004400029FF2000FFF739FE544909680322914330
:10045000084352490860FFE7FFE710BD70B502008E
:100460000E000020110A0907090F01291BD00229DB
:100470001BD0032908D0062919D007291AD008292A
:100480001BD00A291DD01EE08F4C110BCD06ED0E9E
:10049000002801D0FFF7FEFE3200D2B22900200072
:1004A000FFF7F8FD70BD094CEFE7884CEDE7884C8D
:1004B0000120EAE7874C1020E7E7874C80204000C6
:1004C000E3E7864CE1E7EDE700800C4008800C4054
:1004D00004800C408006120068800C4090071800D1
:1004E00080B5F82189030140002924D080208002B2
:1004F00081422BD08020C00281421FD0E020000327
:10050000814240D08020400381423FD09020400370
:10051000814222D0C020400381422BD0E020400302
:10052000814216D0F020400381421FD090208003EA
:1005300081422ED030E000F020FA2EE000F01DFACB
:10054000674909680907090FC84026E000F008FA62
:1005500023E06448FFF748FE1FE06248FFF744FECF
:10056000614909680907090FC84016E05F48FFF7AD
:100570003BFE12E05D48FFF737FE0849096889072E
:10058000890FC84009E0FFF7DDFD06E0FFF7A9FD90
:1005900003E0FFF78AFE00E0002002BD70800C40FF
:1005A000FF3FFEFF010200000180000000B50100D6
:1005B00001200907090F01290AD0022927D00329A0
:1005C0003DD0042953D0062960D0072960D078E0B7
:1005D000474800684749014080200001814210D00F
:1005E0008020400181420AD080208001814204D0D5
:1005F0008020C004814206D007E0022006E00320EC
:1006000004E0042002E00B2000E005205AE0A349AA
:1006100009688907890F012904D009D3032905D066
:1006200002D305E0032009E0022007E0062005E0F0
:100630009A490968C90301D50C20FFE742E09749B0
:1006400009680C220A40042A04D0082A04D00C2A83
:1006500004D005E0032009E0022007E0062005E0C1
:100660008E490968C90201D50C20FFE72AE08B48B2
:10067000006830210140102902D0202902D003E077
:10068000032002E0022000E001201BE0072019E027
:1006900017480068E021C9020140802040028142E1
:1006A00009D080208002814207D08020C002814290
:1006B00005D10A2004E0022002E0032000E001202E
:1006C00000E00020C0B200BD40800C4044800C40DF
:1006D00058800C4060800C4064800C4078800C4056
:1006E00008800C4002001C0068800C4003001E00C3
:1006F0002C800C40003C000438B503220322002467
:1007000005072D0F2800401E08D0401E012836D9AD
:10071000801E71D0C01E00D18FE0BEE0C9B2022998
:100720000AD003291DD004291ED005291FD00B296A
:1007300020D00C2921D021E0042400200122012115
:10074000C0B200F0B5F8FFF724FDFFF7CAFD54482A
:10075000046000F005F90021FFF732FDFFF7C2FD4C
:100760009BE003240120E9E702240220E6E70124BC
:100770000320E3E705240520E0E78EE08DE0C9B221
:10078000012908D0022913D0032918D006291DD029
:100790000C2922D024E00020022D22D13F490968F3
:1007A000404A0A401043210401433C48016022E0D2
:1007B00001220121002000F07BF80220ECE7012259
:1007C0000121012000F074F80120E5E70122022157
:1007D0003548FFF75FFC0320DEE700200124DBE75C
:1007E0005BE02E490968314A0A4080001043210528
:1007F00001432A48016050E0C9B2012904D01BD34B
:10080000032912D00AD317E00020244909683022B6
:10081000914300010843214908603EE00122012183
:10082000002000F045F80220EFE70122012101201D
:1008300000F03EF80120E8E72FE0C9B2022904D019
:1008400003290FD00A291AD026E001220121002015
:1008500000F02EF840201249086033480068C003B9
:10086000FBD51AE001220121012000F021F86020CF
:100870000B4908602C4800688003FBD5F1E7012292
:100880000121052000F014F8802005490860264861
:1008900000684003FBD5E4E7FFE731BD28800C404A
:1008A00024800C40FCFFFEFF40800C40F3FFEFFF74
:1008B00010B5C0B2002826D0022818D01FD30428B3
:1008C00019D002D3052824D029E0012002230124D5
:1008D000C9B2002924D015490860D2B2002A21D01B
:1008E00021001148FFF7E3FB00281BD1F8E70420A3
:1008F00008230324ECE7102020230524E8E7402008
:1009000080230724E4E78020400080239B00092403
:10091000DEE78020C00080231B011624D8E701E019
:100920000248036010BD00002C800C4020800C4069
:10093000010000200A0C01D1103009040A0E01D177
:10094000083009020A0F01D1001D09018A0F01D1E7
:10095000801C8900490002D200D4401C401C704712
:1009600080B500F00AF8314909680907090FC84045
:100970002F49086002BD2F48704700B52E48006817
:100980002E49014080200001814212D08020400188
:1009900081420BD080208001814204D08020C0049D
:1009A000814209D00AE02648006829E08020000240
:1009B00026E02448006823E01E4821E02248006821
:1009C000E021C9000140002917D080204000814269
:1009D00011D08020800081420BD0C0208000814255
:1009E00005D08020C000814209D1184808E018488D
:1009F00006E0184804E0184802E0184800E000202B
:100A000017490968890B4907490F491C00F047F845
:100A100000BD1448144908607047802000027047E8
:100A2000FA208000704706480068704704800C4038
:100A30001000002000366E012C800C40003C0004A9
:100A40000C000020080000200C800C40406F40018A
:100A5000809FD500C0D8A70040B56400804F120029
:100A600000800C400000000008ED00E0F446002883
:100A700004D4494200F013F8404260474042002944
:100A800005D45FD000F00BF840424942604749422C
:100A900000F005F84942604703460B43E6D40022C4
:100AA000030A8B420BD203098B4219D243088B42B3
:100AB0002ED2411A00D20146524110467047FF2201
:100AC00009023FD012068B4205D3121209028B4253
:100AD00001D31212090203098B4219D300E0090A5B
:100AE000C3098B4201D3CB01C01A524183098B4207
:100AF00001D38B01C01A524143098B4201D34B01F0
:100B0000C01A524103098B4201D30B01C01A524152
:100B1000C3088B4201D3CB00C01A524183088B42D9
:100B200001D38B00C01A524143088B4201D34B00C2
:100B3000C01A5241884200D3401A5241CFD20146D6
:100B40001046704708B500F001F808BD7047000076
:100B500000B5BFF34F8F784878490860BFF34F8FD7
:100B600000BFFDE780B50100C9B2754800F03BFA4F
:100B700001BD80B5724800F053FA01BD38B50400DC
:100B8000207861780906090C084380B26D498842D3
:100B900001D000203BE02500203D6B4A20212800A9
:100BA00000F08DFA020092B26849A01D00F087FAA9
:100BB000A178E2781206120C1143020089B292B2B7
:100BC000914213D0A378E1780906090C0B432279EE
:100BD00061790906090C0A4380B200909BB292B277
:100BE00029005B4800F0A3FA002010E0A378E07829
:100BF0000006000C0343227960790006000C0243D2
:100C00009BB292B22900C34800F091FA012032BD94
:100C100080B550480068FFF7B1FFBF49087001BDBB
:100C200080B59E480068FFF7A9FFBC49087001BD68
:100C300010B5A04800F074FA002402E08020C00043
:100C40002418C020C001844215D2FFF792FFC020B3
:100C5000C001021BBA48824201D38022D200A020E8
:100C6000000221188020C001201800F07DFA002821
:100C7000E4D1002000E0012010BD10B50024994807
:100C800000F04EFAC820400000F004FB032000F002
:100C90001BFC00282DD0A02109029B48008800F0F1
:100CA00087FB002817D0FFF7BBFF9C48007800287F
:100CB0000DD0FFF7BDFFFFF7ABFFAA480078002873
:100CC00001D001240AE0062000F048FD06E00520DE
:100CD00000F044FD02E0042000F040FD2000C0B21E
:100CE000002801D0012000E00420C0B200F0ECFB9D
:100CF00002E0032000F032FD00F0E8FE2000C0B268
:100D000010BD80B5984800F00BFA642000F0C2FADC
:100D100072B600F037FFFFF72CFF8020C001934927
:100D200008608020C001006880F3088862B690489F
:100D30000068804701BD00000400FA050CED00E0EA
:100D4000008008404D4E0000FFFF0000DA5F000009
:100D5000C82E0000AC32000010B500F0E2FE012009
:100D6000FFF700FF00F04DFF040000F02EFF3020E1
:100D70002040002803D001207E49087002E00020B6
:100D80007C49087000F08CF85F48038822007A499B
:100D90007A4800F0CCF977480078002808D0E006BF
:100DA00003D5774800F0BCF902E0764800F0B8F9C6
:100DB000554800887449884207D053480088002865
:100DC00003D001207149087002E000206F490870CB
:100DD00000206F49087000F011FD6E490870FFF7A0
:100DE00017FFFFF71DFF4C480078002807D14B483C
:100DF0000078002803D0FFF71BFFFFF709FF4648E4
:100E00000078002809D161480078002805D1012028
:100E10005E49087000203C49088000205B4908704A
:100E200000F057FA0400FFF7A4FE00F0BDFF00F049
:100E300045FC59480078002801D0FFF789FE534847
:100E40000078002813D13448007800280FD0494892
:100E5000007800280BD151480078002807D100F015
:100E600038FA001B4E49884201D3FFF74AFF474832
:100E700000780028D7D0FFF700FF002809D0002015
:100E80004249087000202049088000F015F8FFF75B
:100E900038FF00203D490870C5E70000B03200006F
:100EA00010B50222FE210905174C200000F09EFF1C
:100EB00010BD0000A831000080B502221249FE20BA
:100EC000000500F051F9002802D1364800F02FF952
:100ED00001BD80B5344800F02AF901202F4908707F
:100EE00001BD0000B831000038B514000122274BC5
:100EF0001A702E4A106080222D4D280000F076FFD7
:100F00000148048031BD0000541000200120224916
:100F100008707047B02F0000591000205A100020B0
:100F200000B510480078002801D1002007E02148D2
:100F3000016808794A791206120C104380B200BD8C
:100F40000104000000B51C480078002801D10020F1
:100F500007E01A48016808794A791206120C104312
:100F600080B200BD591000203832000008ED00E0CA
:100F7000044000005D10002074320000F4300000D6
:100F8000A0300000BC300000FFFF00005610002021
:100F90005B1000205C10002057100020581000202B
:100FA000891300000C3100006C310000F80E0020A5
:100FB000FC0E0020AC3200005A100020B0320000BD
:100FC00010B4036801248C40A3431400E407E40F29
:100FD0008C401C43046010BC70470268CA4010007B
:100FE000C007C00F704710B504002068C00616D4B3
:100FF000C9B200290ED100212000FFF7EEFF002822
:101000000DD0A068C007FCD4002200212000FFF70B
:10101000D7FF04E0012200212000FFF7D1FF10BD1F
:1010200000B50168C90707D58168890704D48168BC
:10103000C907FCD40121416000BDF1B50878002842
:1010400001D0012000E000204A78002A01D00222CD
:1010500000E000228B78002B01D0042300E0002365
:10106000CC78002C01D0082400E000240D79002D5C
:1010700001D0202500E000254E79002E01D0402629
:1010800000E000268F79002F01D0102700E0002714
:10109000024313431C4325432E433743C8790203BD
:1010A0003A43087A0002104300990968C90703D53A
:1010B00000998968C907FBD400990860F1BD10B593
:1010C0000300100016E01A780400A4B2240A0002FB
:1010D0002043D2B25040020092B212091207120FFE
:1010E0004240140354406201FF2040011040604020
:1010F0005B1C491E0A0092B2002AE4D180B210BDE6
:1011000080B5C0B200F001FF01BD10B5040003E0DE
:101110002078FFF7F5FF641C20780028F8D110BD77
:1011200080B5FFF7F2FF0AA0FFF7EFFF01BD0EB495
:1011300000B5010001AA074800F0DFFF0548FFF7EE
:10114000E4FF03A0FFF7E1FF009804B000470000B0
:101150000D0A00007C0F002080B501F077F801BD7A
:1011600080B501F077F801BD70B504000D001600E0
:10117000A00506D1200001F0E7F8002801D00020EA
:101180000BE02900320092B2200001F067F800283D
:1011900001D1012000E00020C0B270BDF0B5020016
:1011A00052B2002A1CD44D4A03005BB29B080424AF
:1011B0006343D258FF238407A40F08256C43A34040
:1011C0009A438901C9B283079B0F0824634399405E
:1011D0001143424A40B2800804235843115022E090
:1011E0003F4B020052B21207120F083A9208042431
:1011F00062433B4C05006DB22D072D0F083DAD0835
:10120000042675436459FF258607B60F08277E43D9
:10121000B540AC438901C9B28007800F08256843F7
:10122000814021439950F0BD80B5411E8022520477
:10123000914201D301200EE0401E2A49086003219B
:101240000020C043FFF7AAFF0020274908600720BD
:1012500026490860002002BD80B52548FFF7E0FE62
:1012600001BD80B5234800680A21FFF718FCFFF78D
:10127000DBFF01BD00201D49086000201A490860FD
:1012800000201849086070471B480068401C1A4934
:101290000860704738B518490C686421FFF7FFFBF8
:1012A000050001E0FFF7D8FF13480068001BA842C3
:1012B000F8D331BD38B504000F4805680A2044430F
:1012C00001E0FFF7C9FF0C480068401BA042F8D3BB
:1012D00031BD0948006864214843704700E400E0DC
:1012E0001CED00E014E000E018E000E010E000E099
:1012F00000800840100000203010002080B58B488E
:10130000FFF78EFE01BD80B500F05DFA884900F060
:1013100011FE012801D1012000E00020C0B202BD71
:1013200080B500F050FA834900F004FE012801D195
:10133000012000E00020C0B202BD80B57E4A7F4996
:1013400000F0F8FD012801D1012000E0002002BDDD
:1013500038B50500002403E0641C0220FFF7AAFF53
:101360002000C0B2032816DA0020734908607448D0
:1013700000902B00734A1421734800F07FFB012872
:10138000EAD1FFF7C0FF0028E6D06B4800680028CC
:10139000E2D0012000E0002032BD80B5664A6749F6
:1013A00000F0C8FD012801D1012000E0002002BDAD
:1013B000F3B585B0069A05996448FFF7B8FE05981D
:1013C000FFF7C6FF002801D100207BE000255A4826
:1013D0000068039003985E49884204D35D48FFF794
:1013E000A6FE00206EE0002000F034FA039885424B
:1013F00061D2002617E00398441B00204E49086084
:101400002819401E029001954D480090059B524AB4
:101410001421524800F032FB012810D0FFE7761C5F
:101420000220FFF747FF3000C0B203283BDA0398E1
:10143000401B4B498842DED38024E400DDE7FFF700
:101440006FFF0028EBD000F0CCF9009023003A4861
:10145000026829004348FFF76AFE00F0C2F9A04283
:10146000DDD100F0B2F907001BE03348046006E06C
:101470003B488442F9D38020C0002F490860FFF721
:101480003DFF2D480268390006984019FFF76CFEB1
:10149000294800682D1828480068241A2648006842
:1014A0003F18002CE4D1F6B2032E9FDB012000F0A0
:1014B000D1F9002006E02C48FFF732FE012000F0B1
:1014C000C9F9012007B0F0BD7FB505002748FFF737
:1014D00027FE002404E0FFE7641C0220FFF7EAFE79
:1014E0002000C0B203281EDA002013490860FFF76D
:1014F00017FD06001E4800F02FFF03001048039060
:101500001C48029001962800C0B2009000221E21C3
:10151000194800F0B3FA0028DDD4FFF7F4FE0028E4
:10152000DAD0012000E0002004B070BD0080084047
:1015300008320000183200005010002080310000F6
:10154000FC0E00203B130000302F00005C2F000039
:1015500001600000943100009B1300004C2E00003D
:1015600001040000F82F00009C32000054310000FC
:10157000F80E0020A4320000FC2E0000704700B5D9
:10158000C0B2012801D1092000E0002000BD00B553
:10159000C0B2002802D0032802D003E0042002E0F9
:1015A000462000E0002000BD80B50100734A891C80
:1015B00089B27348FFF783FD02BD38B57148807961
:1015C000FFF7DDFF04000834FFF7EEFF6D49888068
:1015D0006C48C37922006B4881796B48FFF7A7FDFF
:1015E000002504E06748405D00F0B9FF6D1CA5428E
:1015F000F8D331BD10B5040022000832614881796A
:101600006248FFF794FD2000FFF7CEFF5D4989880F
:1016100080B2814203D001205A49C8714DE0594837
:101620008079002806D002283BD01ED3042832D06F
:101630000DD33FE002205649087000225549514819
:101640008068FFF751FC00204E49C87135E0022048
:101650004F4908705048028850494A488068FFF74F
:1016600043FC00204749C87127E0C820400000F033
:10167000B1FB4748007843490872FFF751FC4849DD
:1016800000F09EFFFFF75EFC464900F099FF002046
:101690003C49C87111E0FFF71CFC00203949C871B2
:1016A0000BE002203A490870FFF730FC0020354972
:1016B000C87102E003203349C87110BD10B5FFF7AF
:1016C00008FE040000F02AFF002833D436490C60DD
:1016D00001002C4A354B1B68D15434490968491C18
:1016E000324A11603149096805290DD230492F4A23
:1016F0001268521E08235A43D140C9B281422CD0ED
:1017000000202A49086028E028480068082824D3D7
:101710001C488079FFF73BFF01000831234A12681B
:101720008A421AD3FFF766FFFFF747FF00201F49E1
:10173000086012E01C480068201AFF21F631884238
:101740000BD31A480068002807D0184801681948C8
:10175000FFF7EDFC00201549086010BD80B50C496D
:1017600009780200D2B2914206D0094908700848AF
:1017700001781148FFF7DBFC01BD0000FFFF00000E
:10178000E60F0020E00F0020D42F000024310000DD
:10179000F5020020D83000002C100020EC0F0020B3
:1017A000E90F0020ED0F0020401000203C10002029
:1017B000ADDE25A53C300000E831000080B5AA4828
:1017C000FFF72EFC01BDA748704700B5A748006889
:1017D000002801D5002003E0A248A4490968401868
:1017E00000BD00B5A1480068002801D5002004E034
:1017F0009F4800689D490968401A00BD0120704754
:1018000080B59C4900F096FB012801D1012000E041
:101810000020C0B202BD80B5974900F08BFB0128C3
:1018200001D1012000E00020C0B202BD80B59D4979
:1018300000F080FB012801D1012000E00020C0B2AF
:1018400002BD80B5C0B200F08AFE01BD80B500F0D7
:1018500065FE02BD944908707047F7B504000D009D
:101860001E003E20FFF74CFC2000FFF74EFCFFF768
:10187000A5FF02E0C0B2FFF7E4FF2078641C01007E
:10188000C9B20029F6D168464670884804680A2023
:101890004543002073490870002075490860002006
:1018A000694608700026002705E0FFF7CFFF01908A
:1018B000019800281BD5FFF781FF7C4800682100B4
:1018C00089B2401AA842F0D368464078002802D175
:1018D0000020C043ABE0002700240020C043634940
:1018E0000860634801687248FFF721FC57E06E48C2
:1018F0000078002803D00198C0B2FFF701FC0198DE
:101900005B4909686B4A914202D30021584A116031
:101910005449574A1268885455490968491C544A21
:10192000116000214F4A524B1B68D15469464978D7
:10193000012906D13900C9B2002902D05B490C68DF
:101940000225C0B20A28B6D149480068801B032886
:1019500004DA012755480468022515E068464078F6
:10196000002811D13F488019FFF74AFF00280ED107
:101970003C488019FFF74FFF002809D139488019EA
:10198000FFF754FF002809D13948066893E7A2E71A
:101990004948FFF7C5FB0020C04348E09BE73448B7
:1019A000006884423ADA20000400641C2D49085C77
:1019B0000A28F4D12B48055D00202A490855002645
:1019C0003C20FFF79DFB2748C019FFF79EFB6846A8
:1019D000407801282CD1E01B032818DB0126F6B241
:1019E000002E10D0029800280DD01E48C019029970
:1019F0008847002831D031A0FFF792FB684669463E
:101A00000978491C0170174805552700C7E7154894
:101A100005551648046000201249C8556946002043
:101A200009562748FFF783FB694600200856FEBD8C
:101A3000684640780028D2D1E01B0328CFDB094854
:101A4000C019FFF7DDFE0028C9D10648C019FFF70D
:101A5000EDFE0028C3D10126C1E71AA0FFF760FB05
:101A6000D1E70000F8020020008008403810002074
:101A7000341000207C3200005032000008B430B531
:101A80000D00140003AA01000F4800F036FB0123EB
:101A9000220029000C48FFF7E0FE029930BC02B09A
:101AA00008470000C8310000F40200203010002078
:101AB000D8310000FF070000843200003A290000FE
:101AC0008C3200003A280000F802002080B500F0B7
:101AD0004DFD012002BD000022480068000EC0B28A
:101AE000704780B5012020490860FFF7F5FFC0B2BC
:101AF000822808DA1D481E4908601E4800681E49F1
:101B000001401C48016001BD80B50100C9B21B48FD
:101B1000FFF769FA01BD80B501001848FFF78DFA9B
:101B200001BD1FB5FFF7DDFF04211120FEF7E4FD25
:101B300000F0A3FDFFF795FB00F04CFC00F0A6F9C8
:101B4000FFF71CFDFFF708FB68460D491CC91CC0C8
:101B50000C390C380920694608726846FFF7DBFF2C
:101B60001FBD0000FC81E00F40000C400500000498
:101B700018600C40E4800C40FFFFFFFE008008402E
:101B80004432000080B50020FFF7BEFFFFF7E8FAFF
:101B9000FFF770FB00F07FFC00F095F901BD00003D
:101BA00010B4036801248C40A3431400E407E40F3D
:101BB0008C401C43046010BC704700202149086021
:101BC000704721481F490860704710B501201F4920
:101BD00008601C4800680400E407E40F002C01D0F2
:101BE000FFF7EFFF012200211948FFF7D9FF00227C
:101BF00000211748FFF7D4FF002C01D0FFF7DDFFCD
:101C000010BD30B5134801680020002215E0124BCA
:101C1000082454431B195B680F4C0825554364592D
:101C20000C40002C08D00B40002B05D104000A48C2
:101C300008235343C0582043521C0B2AE7D330BD1E
:101C40000000000008600C40E8AD000008A00C4057
:101C500024600C4004A00C40F42D000000B50200EC
:101C6000D2B2002A01D15D4A3EE00200D2B2012A7E
:101C700002D1D322D20137E00200D2B2022A01D12E
:101C8000574A31E00200D2B2032A01D1F0222BE000
:101C90000200D2B2042A02D1F022920124E0020012
:101CA000D2B2052A01D13F221EE00200D2B2062A9A
:101CB00001D1002218E00200D2B2072A01D100228D
:101CC00012E00200D2B2082A01D100220CE0020088
:101CD000D2B2092A01D1002206E00200D2B20A2AB9
:101CE00001D1002200E000220A411300DB07DB0FD4
:101CF00001228A403B49C0B224235843081842615C
:101D000000BD00B50200D2B2002A01D1334A3EE044
:101D10000200D2B2012A02D1D322D20137E002005E
:101D2000D2B2022A01D12E4A31E00200D2B2032AF5
:101D300001D1F0222BE00200D2B2042A02D1F0221B
:101D4000920124E00200D2B2052A01D13F221EE016
:101D50000200D2B2062A01D1002218E00200D2B25B
:101D6000072A01D1002212E00200D2B2082A01D1D2
:101D700000220CE00200D2B2092A01D1002206E0C2
:101D80000200D2B20A2A01D1002200E000220A4158
:101D90001300DB07DB0F01228A401249C0B2242363
:101DA00058430818026100BD80B5FFF792FA0E494A
:101DB0000968FEF774FE0C4800684008814204D2AE
:101DC00003210520FFF79DFF03E003210520FFF716
:101DD00045FF01BD04490860704700000707000087
:101DE0001FEF00000060004004000020124207D0F6
:101DF0008B0706D00B78491C0370401C521EF7D885
:101E00007047830706D00B78491C0370401C521E94
:101E1000F9D1704770B4103A03D378C9103A78C03A
:101E2000FBD2530701D318C918C001D508C908C08F
:101E3000D20704D30B880380891C801C002A01D59B
:101E40000B78037070BC704700B5010049B20029DF
:101E500009D40121C006C00E81402F480160BFF3A4
:101E60004F8FBFF36F8F00BD00B5010049B200294D
:101E700005D40121C006C00E81402848016000BD84
:101E800081647047C26C8A43C264704780B586B073
:101E900001212348FEF7E2FA01212248FEF7DEFA8B
:101EA000684621491822FFF7B5FF002069460870EF
:101EB00069461E4800F088FC03201D49086000F0B8
:101EC00018F807B000BD80B500F019F804211748D4
:101ED000FFF7D8FF1120FFF7B7FF04211348FFF7E2
:101EE000CFFF1120FFF7C0FF00210E48FEF7B6FA22
:101EF00001BD80B505210D4800F051FC01BD80B544
:101F000000210A4800F04BFC01BD80B50100C9B2B8
:101F1000064800F0CBFC01BD80E100E080E200E07B
:101F200040810400003204003C31000000C0004049
:101F300054C000400CB4F8B504000F000020002588
:101F400006AE00206946087068460078002808D070
:101F50004E48FFF7E5F82000FFF7E2F83800FFF7FA
:101F6000DFF838785E2840D17F1C3EE0002005E095
:101F70000A235843D2B2303A8018641C22781300E6
:101F8000DBB2002B04D01300DBB2303B0A2BEFD3C3
:101F9000C9B2622905D13168361D002906D0087002
:101FA00004E03168361D002900D008606D1C1CE07B
:101FB0003068361D39786A46517021780A006B46C0
:101FC0005B78D2B29A4239D00A00D2B2002A35D018
:101FD000641C002801D00170401CC9B20029ECD15A
:101FE000002801D0002101706D1C38787F1C6946E3
:101FF0004870C0B2002835D068460078002803D069
:1020000068464078FFF77CF868464078252816D166
:1020100039787F1C0800C0B26228A7D06428A5D0F8
:10202000652809D0702802D07328C1D0DDE7306858
:10203000361D002800D004606D1CD6E7D0E7684646
:1020400040782178884203D168464078641CCCE708
:1020500068460078002802D03C20FFF751F8EDB226
:1020600028000EE068460078002808D02A20FFF7F4
:1020700047F80D20FFF744F80A20FFF741F8EDB2CA
:10208000280001B00499F0BC03B008479432000066
:10209000F4B507000E00002430000099FEF7FFFCA5
:1020A0000D0030000099FEF7FAFC06003800471CCE
:1020B0002900C9B20A2901DA302100E03721691864
:1020C0000170641C002EE7D12000C0B2F2BD00B543
:1020D0000EE002780B00DBB2C3185B1E1B780370A6
:1020E0000B00DBB2C3185B1E1A70491E491E401C50
:1020F0000A00D2B2022AECDA00BDF8B504000E00E4
:10210000150010E02270641C0A78491C1300DBB231
:10211000002B08D00300581EDBB2002B03D01300A5
:10212000DBB2232BEED13078761C0100C9B2002936
:1021300042D00100C9B225293BD13078761C01007C
:10214000C9B2232930D0622907D0642905D06C296F
:1021500003D073291CD07829E5D10100C9B27829B0
:1021600001D1102200E00A22C0B26C2802D12968F5
:102170002D1D01E029682D1D2000FFF789FF0700B4
:102180003900C9B22000FFF7A2FFFFB2E419CAE785
:1021900029682D1D01E02070641C0878491C02008C
:1021A000D2B2002AF7D1BEE729682D1D28682D1D5F
:1021B000AAE72070641CB6E7002020702000F2BD62
:1021C00008B4024B9C4608BC6047C046D5020020BC
:1021D00008B4024B9C4608BC6047C046150200206C
:1021E00010B5010015480068000712D508784A1C90
:1021F0001178521C1378521C1478521CE4B2220637
:10220000DBB21B041343C9B209021943C0B208432D
:1022100000E0086810BD00B540B2002806D00321D8
:10222000C943401A06D0C01E02D005E0002004E0D9
:10223000034802E0034800E0034800BD14ED00E05D
:10224000013000F0023000F0073000F080B500F0FF
:1022500035FB01BD80B500F067FB01BDF8B5050099
:10226000140000200E002A009707BF0F3A00D2B2D8
:10227000002A44D00800FFF7B3FF0090009808211F
:1022800079438840009000980021C9430422D31B61
:1022900008225343D94001430091200080B2042119
:1022A0003A00D2B2891A88420AD200990020C0436B
:1022B0003A1908235A43904008430090002403E051
:1022C0003800C0B2001F24183800C0B241426D1857
:1022D000042269462800FFF773FFFFB279427118A4
:1022E0000E1D2D1D0BE03000FFF77AFF0090042239
:1022F00069462800FFF764FF2D1D361D241F2100AD
:1023000089B2042903D3010049B20029EBD021008E
:1023100089B2002914D0010049B2002910D130003F
:10232000FFF75EFF009000980021C9430822544344
:10233000A14001430091042269462800FFF740FFB5
:1023400040B2FFF768FFF2BD80B5FFF741FF40B232
:10235000FFF761FF02BD0000C37882784178007802
:102360001B021A430902120408431043704700007D
:1023700000B5010049B2002905D40121C006C00EF4
:1023800081407E48016000BD00B5010049B20029CE
:1023900009D40121C006C00E814079480160BFF315
:1023A0004F8FBFF36F8F00BD00B5010049B2002908
:1023B00005D40121C006C00E81407248016000BDF5
:1023C00041637047826B8A4382637047826B11431B
:1023D00081637047F8B501216B48FEF73FF8012192
:1023E0006A48FEF73BF801216948FEF737F869486B
:1023F0000068C0050AD5FEF716FB9621090288423F
:1024000004D302216448FEF777F91CE006216248F4
:10241000FEF772F96048FEF763F80100002200E061
:10242000521C1000C01D0B00C340962000028342C6
:10243000F6D21000C0B2042800D3FEE7012191407B
:102440005648FDF781FF01215448FEF707F868461A
:1024500053491022FFF7DEFC0020694608709620E1
:102460000002029069464F4800F0C8FA03204E4926
:10247000086004214B48FFF7A3FF0A20FFF794FFF1
:1024800004214848FFF7A2FF0A20FFF771FF00F080
:1024900018F805B000BD80B500F019F804214148D6
:1024A000FFF790FF0A20FFF76FFF04213D48FFF779
:1024B00087FF0A20FFF778FF00213848FDF7CEFF9D
:1024C00001BD80B50521374800F073FA01BD80B524
:1024D0000021344800F06DFA01BD80B53348006832
:1024E00040071AD52F4800F0B3FA31490968802215
:1024F000D200914211DA2F492F4A126888542E488F
:102500000068401C8021C900FEF7C6FA2A48016015
:1025100027480068401C2649086001BD38B50024E2
:10252000E44300F0BFFA050021480068012811DBF0
:10253000204822490968445C1D480068401E1C4927
:1025400008601E480068401C8021C900FEF7A4FAFC
:102550001A480160280000F0A9FA200032BD80B5B9
:102560000100C9B20F4800F07AFA01BD80B58021A0
:1025700089010C4800F080FA01BD000000E100E094
:1025800080E100E080E200E040810400008204007D
:10259000002302002C800C4003001E00900718004E
:1025A000F831000000400840544008402C400840EA
:1025B0004C100020F80A0020441000204810002091
:1025C00084460870000A4870000A8870000AC870C3
:1025D0006046704700B50200D2B2002A01D13B4AE2
:1025E0003EE00200D2B2012A02D1D322D20137E06A
:1025F0000200D2B2022A01D1354A31E00200D2B241
:10260000032A01D1F0222BE00200D2B2042A02D127
:10261000F022920124E00200D2B2052A01D13F2229
:102620001EE00200D2B2062A01D1002218E0020008
:10263000D2B2072A01D1002212E00200D2B2082A47
:1026400001D100220CE00200D2B2092A01D10022FD
:1026500006E00200D2B20A2A01D1002200E00022E4
:102660000A411300DB07DB0F01228A401949C0B27F
:10267000242358430818026100BD80B50121164883
:10268000FDF7ECFE002304220321052000F0C0FA30
:1026900003210520FFF79EFF0123042204210320CC
:1026A00000F0B6FA002301220521032000F0B0FA61
:1026B000012304220A21042000F0AAFA00230122A7
:1026C0000B21042000F0A4FA01BD00000707000060
:1026D0001FEF00000060004000820400C9B2102219
:1026E0000A4382657047F8B504000F0015001E000C
:1026F000002F03D15048FDF7F3FE07003000C0B2B1
:10270000002806D020281DD0402824D060282ED0B4
:1027100036E03809A84201D3012000E00020C0B211
:1027200010212020474308006843400838186943B7
:10273000FEF7B5F92038082148434049884220D2A5
:1027400001211FE0F808A84201D3012000E0002089
:10275000C0B20821E5E738000621FEF7A0F9A8423B
:1027600001D3012000E00020C0B20621D9E7B8085B
:10277000A84201D3012000E00020C0B20421D0E72C
:102780000CE00021C9B22E4901402068602290432C
:1027900020602068F6B2064326606161F1BD00B595
:1027A0003D4A904202D03D4A904201D1012200E0D0
:1027B0000022D2B20B00DBB2DA43052313405A00E9
:1027C000C260C9B2C16000BD38B50400324884425D
:1027D00002D03248844201D1012000E000200D00E7
:1027E000C0B2200000F02EF8A87C002804D0206899
:1027F0008021C90501432160E87C002803D0297DA0
:102800002000FFF76BFF687B1021695E08430E21F3
:10281000695E084360602B7BAA6869682000FFF747
:1028200062FF687D002804D02068802149020143AE
:1028300021602878E06031BD40810400F9FF1F006D
:10284000F8FF1F0000B51449884202D0134988429E
:1028500001D1012100E00021C9B21149C16000216C
:102860000160104941600021816000214161002127
:10287000C1640D498164002141650749884201D145
:1028800000210165002181650349884201D10021B1
:10289000C16500BD0000000000C0004000C4004051
:1028A000AA0E000005100000F91F000000B5026923
:1028B0005206FCD5C9B2416300BD000080B51F4877
:1028C0001F4908601F480068012188431D490860AE
:1028D00080204003FDF704FE1B49884210D30B21E2
:1028E00048430A21FEF7DBF81849FEF7D8F8401CE8
:1028F00017490968174A0A4010431549086012E051
:10290000372148430A21FEF7CAF81049FEF7C7F8F5
:10291000401C0F4909680F4A0A40104380214902B0
:1029200001430B48016001BD06480068012188434E
:10293000044908600020024908607047711B0000CC
:102940003C000C4008000C40814F120040420F0038
:1029500050000C40C0FFFEFF00B5026CD20703D44C
:10296000426C0A40002AFBD100BD38B504000800C3
:102970001500002805D1484884420FD14748FDF78B
:10298000AFFD202148432900FEF789F820380821AF
:1029900048434349884202D2012101E008E0002176
:1029A000C9B23C4D054004212000FFF7D5FFE5608A
:1029B00031BD38B504000D003748844201D10120F3
:1029C00000E00020C0B22900C9B2C843052101407F
:1029D0004800EDB2054302212000FFF7BDFF65600E
:1029E00031BD00B5C9B2002905D0416C0029FCD128
:1029F0000121016401E00021016400BD38B504003B
:102A00002548844201D1012000E000200D00C0B221
:102A100002212000FFF7A0FF0A20606001212000B2
:102A2000FFF7DFFF20681C218843297B0143687B77
:102A30000843A97B01432160AA6869682000FFF769
:102A400094FF2878606000212000FFF7CAFF31BDA5
:102A500000B581688906FCD5C069C0B200BD38B533
:102A600004000D00A068C006FCD540212000FFF73F
:102A700073FFEDB2A56231BD38B504000D00A0684A
:102A8000C006FCD520212000FFF766FFADB26562CD
:102A900031BD0000F87F000000400840900718009A
:102AA000F97F0000EFF3108072B6704700B5002880
:102AB00000D162B600BD000000B50200D2B2002A0B
:102AC00001D1504A3EE00200D2B2012A02D1D32203
:102AD000D20137E00200D2B2022A01D14A4A31E0E3
:102AE0000200D2B2032A01D1F0222BE00200D2B2BE
:102AF000042A02D1F022920124E00200D2B2052A77
:102B000001D13F221EE00200D2B2062A01D10022EA
:102B100018E00200D2B2072A01D1002212E002001E
:102B2000D2B2082A01D100220CE00200D2B2092A56
:102B300001D1002206E00200D2B20A2A01D100220D
:102B400000E000220A411300DB07DB0F01228A406C
:102B50002E49C0B2242358430818426100BD00B575
:102B60000200D2B2002A01D1264A3EE00200D2B2CF
:102B7000012A02D1D322D20137E00200D2B2022AC6
:102B800001D1214A31E00200D2B2032A01D1F02260
:102B90002BE00200D2B2042A02D1F022920124E0FA
:102BA0000200D2B2052A01D13F221EE00200D2B2B9
:102BB000062A01D1002218E00200D2B2072A01D170
:102BC000002212E00200D2B2082A01D100220CE059
:102BD0000200D2B2092A01D1002206E00200D2B2DC
:102BE0000A2A01D1002200E000220A411300DB077B
:102BF000DB0F01228A400549C0B22423584308183C
:102C0000026100BD070700001FEF000000600040E8
:102C1000F8B504002000C0B2002801D152483EE0BF
:102C20002000C0B2012802D1D320C00137E020002B
:102C3000C0B2022801D14D4831E02000C0B20328C3
:102C400001D1F0202BE02000C0B2042802D1F020F6
:102C5000800124E02000C0B2052801D13F201EE001
:102C60002000C0B2062801D1002018E02000C0B228
:102C7000072801D1002012E02000C0B2082801D1AD
:102C800000200CE02000C0B2092801D1002006E09D
:102C90002000C0B20A2801D1002000E000201F005F
:102CA00016000D0028410100C907C90F3000C0B24D
:102CB00000280CD0002F05D029002000C0B2FFF75B
:102CC0004EFF04E029002000C0B2FFF7F5FE082DFA
:102CD0001BD227482100C9B2242251434018406822
:102CE0000F212A0004235A43914088433100C9B27E
:102CF0002A0004235A43914001431D482200D2B2C6
:102D000024235A43801841601CE019482100C9B2AD
:102D100024225143401880680F212A00083A0423D6
:102D20005A43914088433100C9B22B00083B04222A
:102D30005343994001430E482200D2B224235A4300
:102D400080188160F6B2002E0CD1002F05D029002A
:102D50002000C0B2FFF703FF04E029002000C0B24A
:102D6000FFF7AAFEF1BD0000070700001FEF0000FB
:102D700000600040F1B481B0016842184168480821
:102D8000131801988068C90722D5494640181FE0EA
:102D900001980C30F6BC70471778521C0770401C25
:102DA000761EF9D1002C13D01678521C89080D40DC
:102DB000032D01D11578521C290271184D42411979
:102DC000A41C05D00D78491C0570401C641EF9D167
:102DD0009A42DDD01178521C032503260E4002D101
:102DE0001678F61C521C0C090F2CD9D114780F340C
:102DF000521CD5E7010000000000000002000000A6
:102E000081000000040000009100000008000000A4
:102E1000010000001000000003000000200000007E
:102E2000DFEF0000400000009FEF00008000000086
:102E30001907000000010000190600000002000050
:102E40001F040000000400001F020000474554203A
:102E50002F72666669726D776172652F25642048EE
:102E60005454502F312E310D0A486F73743A202577
:102E7000730D0A52616E67653A2062797465733D1D
:102E800025642D25640D0A0D0A00000070B401238D
:102E9000002413E00168001D194202D04D466D1E4A
:102EA00049190C60091D121F042AFAD20D00960759
:102EB00001D50C80AD1C1A4000D02C700268001D9A
:102EC000002AE7D170BC70474170702061742030D7
:102ED0007825783A2009494E56414C4944202876B5
:102EE00065722025642C2063726320257820213DA3
:102EF0002061637475616C20257829005055542039
:102F00002F72667374617475732F256C2F25642F6F
:102F100025642F257320485454502F312E310D0A2B
:102F2000486F73743A2025730D0A0D0A00000000E3
:102F300048454144202F72666669726D77617265FB
:102F40002F256420485454502F312E310D0A486FDC
:102F500073743A2025730D0A0D0A0000646F776EB2
:102F60006C6F61644669726D776172652076657217
:102F70003A2025642C207374617274206164647239
:102F80003A2025780000000010B50749794418312F
:102F9000064C7C44163404E0081D0A6889188847EA
:102FA0000100A142F8D110BD7400000090000000A3
:102FB00041707020617420307825783A20094F4B99
:102FC00020287665722025642C2063726320257882
:102FD000290000003E3E20636D643A2025642C20C9
:102FE00073697A653A2025642C2073746174757353
:102FF0003A202564000000004368756E6B3A206F2C
:103000006666732025642C206C202564207265710F
:1030100020256420626F64792025640071FEFFFF23
:10302000680D0000F80200200000000049FDFFFFCD
:10303000E0020000FC0400000000002070617274D7
:1030400069616C206D73672064726F7070656420B5
:1030500028256420627974657329000000F00DF85A
:10306000002801D0FFF790FF00BF00BF002000BF85
:1030700000BFFDF771FE00F002F80120704780B537
:1030800000F002F801BD00000746384600F002F8E3
:10309000FBE700002021090326311820ABBEF9E729
:1030A0004170702043726173682044657465637475
:1030B0006564202857444F47290000004170702064
:1030C0004372617368204465746563746564202885
:1030D0004C4F434B55502900706879746563682ED6
:1030E0006465762E76616C696761722E636F2E69F6
:1030F0006C0000000D0A424C207625732072723A53
:103100002025642C2070753A202564004661696C86
:10311000656420746F2073617665204E564D20647F
:10312000617461003C3C20636D643A2025642C206E
:1031300073697A653A2025640000000005000000EC
:103140000000000000C201000005000000100000A7
:10315000000000007570646174654669726D776186
:1031600072655374617475730000000043616E638F
:10317000656C20417070205374617274000000000F
:10318000436F6E74656E742D4C656E6774683A207B
:10319000256400004669726D7761726520746F6FF7
:1031A000206C617267650000636F707941707032E6
:1031B000746F417070000000537461727420535733
:1031C00020557064617465005E434F4E4E45435414
:1031D0000D0A2565000000007265637620256420D5
:1031E000627974657300000061707020737461749B
:1031F000653A202564000000050000000000000082
:103200008025000000000000485454502F312E311A
:103210002032303020256500485454502F312E3153
:10322000203230362025650080B5FEF72DF801BD2F
:1032300080B5FFF752F901BD4A756D7020746F209B
:103240006170700001000000000000000F0000002D
:103250005E4552524F520D0A2565000080B5FDF7BC
:10326000D8FB00F001F801BD00BF00BF00BF00BFE8
:10327000FFF7F4FE312E3034000000005E4F4B0D9E
:103280000A2565003C4552524F5200003D3E202524
:1032900064000000717363616E6600004446204F55
:1032A0004B000000312E30340000000020400000B0
:1032B00020A0000000B5FEE700B5FEE700B5FEE780
:1032C00000B5FEE700B5FEE700B5FEE700B5FEE796
:1032D00000B5FEE700B5FEE700B5FEE700B5FEE786
:1032E00000B5FEE700B5FEE700B5FEE700B5FEE776
:1032F00000B5FEE700B5FEE700B5FEE700B5FEE766
:1033000000B5FEE700B5FEE700B5FEE700B5FEE755
:103310001037006CDC02E803000000366E0100800C
:103320000000809FD50000B57E4900E0491EA74AF5
:103330001268D20701D50029F8D1002902D1022054
:10334000C0430CE0A34908600120A20610079F4873
:103350000068400702D50018100600E0002000BDFC
:10336000F0B54B12240A10082979D0D2B2002A2CC9
:10337000D199441006994DAA4201D3012224122268
:10338000161018228A426AD22500EDB2002D07D10C
:103390001D68934E35601B1D521C08258D0A20099F
:1033A0005F4D00E06D1E924E3668F67A122D7A104F
:1033B0000A2D06D08E4D2D68AD07E2D5016A234C4B
:1033C000E088100149E0835AB2895A1011EFF310D6
:1033D0008272B6002507E01E687D4F3E6010267998
:1033E0000610111B1D6D1C8D420DD3002A00D162E9
:1033F000B647491CE07A5E100919273740102F02A2
:10340000D110267024127612100D3607F2D5260040
:10341000F6B2002EDFD01E686D1612EEDC500110E1
:10342000266844B403DCE7491E6C1236011210030F
:10343000674909688914219C200940B2F0BDFEB596
:103440000400002063B211E22302D018100A52E0F7
:103450000194019CA40701D10124AC800724E4B2AB
:103460009407A40F002C104010584C246801252507
:1034700043564C25609708002F01D0D614026C46A5
:10348000237034504A250E001BE08020C0000199B3
:1034900004226A4389188905890D401A8408781B1B
:1034A000A04200D27C1B6846027821003000FFF762
:1034B0003DFF010049B2002911D12D1904214C43CF
:1034C0003619BD420BD20198042169434018FFF719
:1034D00010201005D7D040B206E03ABE180D0122E8
:1034E0009143384A116040B2FEBD809698001001A9
:1034F000364933EA1692C241C0640447E0820501AE
:10350000D168122D1C1809012313432B4A13601F85
:103510004A100E21063A1C0E100108D52608180381
:10352000012188432422291A1629B0121720295272
:1035300012131C56C04012100C128030521A303A2E
:1035400018585007C04311E0002908D11416121270
:10355000162566500106E01012320E58100700BD05
:1035600000001C000C401004320C08100500204024
:10357000420F00180C500780B50023FFF73BFF02F5
:0E3580002429D4123C0822080C11E00301019A
:04000005000032695C
:00000001FF
